{
	"Week2-UniDAO/deadman.sol": {
		"DeadmansSwitch": {
			"abi": [
				{
					"inputs": [
						{
							"internalType": "address",
							"name": "_beneficiary",
							"type": "address"
						}
					],
					"stateMutability": "nonpayable",
					"type": "constructor"
				},
				{
					"inputs": [],
					"name": "beneficiary",
					"outputs": [
						{
							"internalType": "address",
							"name": "",
							"type": "address"
						}
					],
					"stateMutability": "view",
					"type": "function"
				},
				{
					"inputs": [],
					"name": "blockThreshold",
					"outputs": [
						{
							"internalType": "uint256",
							"name": "",
							"type": "uint256"
						}
					],
					"stateMutability": "view",
					"type": "function"
				},
				{
					"inputs": [],
					"name": "checkStatus",
					"outputs": [],
					"stateMutability": "view",
					"type": "function"
				},
				{
					"inputs": [],
					"name": "lastCheckedBlock",
					"outputs": [
						{
							"internalType": "uint256",
							"name": "",
							"type": "uint256"
						}
					],
					"stateMutability": "view",
					"type": "function"
				},
				{
					"inputs": [],
					"name": "owner",
					"outputs": [
						{
							"internalType": "address",
							"name": "",
							"type": "address"
						}
					],
					"stateMutability": "view",
					"type": "function"
				},
				{
					"inputs": [],
					"name": "stillAlive",
					"outputs": [],
					"stateMutability": "nonpayable",
					"type": "function"
				},
				{
					"inputs": [],
					"name": "withdraw",
					"outputs": [],
					"stateMutability": "nonpayable",
					"type": "function"
				},
				{
					"stateMutability": "payable",
					"type": "receive"
				}
			],
			"devdoc": {
				"kind": "dev",
				"methods": {},
				"version": 1
			},
			"evm": {
				"assembly": "    /* \"Week2-UniDAO/deadman.sol\":57:1093  contract DeadmansSwitch {... */\n  mstore(0x40, 0x80)\n    /* \"Week2-UniDAO/deadman.sol\":214:216  10 */\n  0x0a\n    /* \"Week2-UniDAO/deadman.sol\":182:216  uint256 public blockThreshold = 10 */\n  0x03\n  sstore\n    /* \"Week2-UniDAO/deadman.sol\":271:417  constructor(address _beneficiary) {... */\n  callvalue\n  dup1\n  iszero\n  tag_1\n  jumpi\n  0x00\n  dup1\n  revert\ntag_1:\n  pop\n  mload(0x40)\n  sub(codesize, bytecodeSize)\n  dup1\n  bytecodeSize\n  dup4\n  codecopy\n  dup2\n  dup2\n  add\n  0x40\n  mstore\n  dup2\n  add\n  swap1\n  tag_2\n  swap2\n  swap1\n  tag_3\n  jump\t// in\ntag_2:\n    /* \"Week2-UniDAO/deadman.sol\":323:333  msg.sender */\n  caller\n    /* \"Week2-UniDAO/deadman.sol\":315:320  owner */\n  0x00\n  dup1\n    /* \"Week2-UniDAO/deadman.sol\":315:333  owner = msg.sender */\n  0x0100\n  exp\n  dup2\n  sload\n  dup2\n  0xffffffffffffffffffffffffffffffffffffffff\n  mul\n  not\n  and\n  swap1\n  dup4\n  0xffffffffffffffffffffffffffffffffffffffff\n  and\n  mul\n  or\n  swap1\n  sstore\n  pop\n    /* \"Week2-UniDAO/deadman.sol\":357:369  _beneficiary */\n  dup1\n    /* \"Week2-UniDAO/deadman.sol\":343:354  beneficiary */\n  0x01\n  0x00\n    /* \"Week2-UniDAO/deadman.sol\":343:369  beneficiary = _beneficiary */\n  0x0100\n  exp\n  dup2\n  sload\n  dup2\n  0xffffffffffffffffffffffffffffffffffffffff\n  mul\n  not\n  and\n  swap1\n  dup4\n  0xffffffffffffffffffffffffffffffffffffffff\n  and\n  mul\n  or\n  swap1\n  sstore\n  pop\n    /* \"Week2-UniDAO/deadman.sol\":398:410  block.number */\n  number\n    /* \"Week2-UniDAO/deadman.sol\":379:395  lastCheckedBlock */\n  0x02\n    /* \"Week2-UniDAO/deadman.sol\":379:410  lastCheckedBlock = block.number */\n  dup2\n  swap1\n  sstore\n  pop\n    /* \"Week2-UniDAO/deadman.sol\":271:417  constructor(address _beneficiary) {... */\n  pop\n    /* \"Week2-UniDAO/deadman.sol\":57:1093  contract DeadmansSwitch {... */\n  jump(tag_6)\n    /* \"#utility.yul\":88:205   */\ntag_8:\n    /* \"#utility.yul\":197:198   */\n  0x00\n    /* \"#utility.yul\":194:195   */\n  dup1\n    /* \"#utility.yul\":187:199   */\n  revert\n    /* \"#utility.yul\":334:460   */\ntag_10:\n    /* \"#utility.yul\":371:378   */\n  0x00\n    /* \"#utility.yul\":411:453   */\n  0xffffffffffffffffffffffffffffffffffffffff\n    /* \"#utility.yul\":404:409   */\n  dup3\n    /* \"#utility.yul\":400:454   */\n  and\n    /* \"#utility.yul\":389:454   */\n  swap1\n  pop\n    /* \"#utility.yul\":334:460   */\n  swap2\n  swap1\n  pop\n  jump\t// out\n    /* \"#utility.yul\":466:562   */\ntag_11:\n    /* \"#utility.yul\":503:510   */\n  0x00\n    /* \"#utility.yul\":532:556   */\n  tag_20\n    /* \"#utility.yul\":550:555   */\n  dup3\n    /* \"#utility.yul\":532:556   */\n  tag_10\n  jump\t// in\ntag_20:\n    /* \"#utility.yul\":521:556   */\n  swap1\n  pop\n    /* \"#utility.yul\":466:562   */\n  swap2\n  swap1\n  pop\n  jump\t// out\n    /* \"#utility.yul\":568:690   */\ntag_12:\n    /* \"#utility.yul\":641:665   */\n  tag_22\n    /* \"#utility.yul\":659:664   */\n  dup2\n    /* \"#utility.yul\":641:665   */\n  tag_11\n  jump\t// in\ntag_22:\n    /* \"#utility.yul\":634:639   */\n  dup2\n    /* \"#utility.yul\":631:666   */\n  eq\n    /* \"#utility.yul\":621:684   */\n  tag_23\n  jumpi\n    /* \"#utility.yul\":680:681   */\n  0x00\n    /* \"#utility.yul\":677:678   */\n  dup1\n    /* \"#utility.yul\":670:682   */\n  revert\n    /* \"#utility.yul\":621:684   */\ntag_23:\n    /* \"#utility.yul\":568:690   */\n  pop\n  jump\t// out\n    /* \"#utility.yul\":696:839   */\ntag_13:\n    /* \"#utility.yul\":753:758   */\n  0x00\n    /* \"#utility.yul\":784:790   */\n  dup2\n    /* \"#utility.yul\":778:791   */\n  mload\n    /* \"#utility.yul\":769:791   */\n  swap1\n  pop\n    /* \"#utility.yul\":800:833   */\n  tag_25\n    /* \"#utility.yul\":827:832   */\n  dup2\n    /* \"#utility.yul\":800:833   */\n  tag_12\n  jump\t// in\ntag_25:\n    /* \"#utility.yul\":696:839   */\n  swap3\n  swap2\n  pop\n  pop\n  jump\t// out\n    /* \"#utility.yul\":845:1196   */\ntag_3:\n    /* \"#utility.yul\":915:921   */\n  0x00\n    /* \"#utility.yul\":964:966   */\n  0x20\n    /* \"#utility.yul\":952:961   */\n  dup3\n    /* \"#utility.yul\":943:950   */\n  dup5\n    /* \"#utility.yul\":939:962   */\n  sub\n    /* \"#utility.yul\":935:967   */\n  slt\n    /* \"#utility.yul\":932:1051   */\n  iszero\n  tag_27\n  jumpi\n    /* \"#utility.yul\":970:1049   */\n  tag_28\n  tag_8\n  jump\t// in\ntag_28:\n    /* \"#utility.yul\":932:1051   */\ntag_27:\n    /* \"#utility.yul\":1090:1091   */\n  0x00\n    /* \"#utility.yul\":1115:1179   */\n  tag_29\n    /* \"#utility.yul\":1171:1178   */\n  dup5\n    /* \"#utility.yul\":1162:1168   */\n  dup3\n    /* \"#utility.yul\":1151:1160   */\n  dup6\n    /* \"#utility.yul\":1147:1169   */\n  add\n    /* \"#utility.yul\":1115:1179   */\n  tag_13\n  jump\t// in\ntag_29:\n    /* \"#utility.yul\":1105:1179   */\n  swap2\n  pop\n    /* \"#utility.yul\":1061:1189   */\n  pop\n    /* \"#utility.yul\":845:1196   */\n  swap3\n  swap2\n  pop\n  pop\n  jump\t// out\n    /* \"Week2-UniDAO/deadman.sol\":57:1093  contract DeadmansSwitch {... */\ntag_6:\n  dataSize(sub_0)\n  dup1\n  dataOffset(sub_0)\n  0x00\n  codecopy\n  0x00\n  return\nstop\n\nsub_0: assembly {\n        /* \"Week2-UniDAO/deadman.sol\":57:1093  contract DeadmansSwitch {... */\n      mstore(0x40, 0x80)\n      jumpi(tag_1, lt(calldatasize, 0x04))\n      shr(0xe0, calldataload(0x00))\n      dup1\n      0x4c41a6c7\n      gt\n      tag_10\n      jumpi\n      dup1\n      0x4c41a6c7\n      eq\n      tag_6\n      jumpi\n      dup1\n      0x7f76614b\n      eq\n      tag_7\n      jumpi\n      dup1\n      0x8da5cb5b\n      eq\n      tag_8\n      jumpi\n      dup1\n      0xb0ad9928\n      eq\n      tag_9\n      jumpi\n      jump(tag_2)\n    tag_10:\n      dup1\n      0x38af3eed\n      eq\n      tag_3\n      jumpi\n      dup1\n      0x3b7104f2\n      eq\n      tag_4\n      jumpi\n      dup1\n      0x3ccfd60b\n      eq\n      tag_5\n      jumpi\n      jump(tag_2)\n    tag_1:\n      jumpi(tag_2, calldatasize)\n      stop\n    tag_2:\n      0x00\n      dup1\n      revert\n        /* \"Week2-UniDAO/deadman.sol\":113:139  address public beneficiary */\n    tag_3:\n      callvalue\n      dup1\n      iszero\n      tag_13\n      jumpi\n      0x00\n      dup1\n      revert\n    tag_13:\n      pop\n      tag_14\n      tag_15\n      jump\t// in\n    tag_14:\n      mload(0x40)\n      tag_16\n      swap2\n      swap1\n      tag_17\n      jump\t// in\n    tag_16:\n      mload(0x40)\n      dup1\n      swap2\n      sub\n      swap1\n      return\n        /* \"Week2-UniDAO/deadman.sol\":640:780  function checkStatus() public view {... */\n    tag_4:\n      callvalue\n      dup1\n      iszero\n      tag_18\n      jumpi\n      0x00\n      dup1\n      revert\n    tag_18:\n      pop\n      tag_19\n      tag_20\n      jump\t// in\n    tag_19:\n      stop\n        /* \"Week2-UniDAO/deadman.sol\":786:1056  function withdraw() public onlyOwner {... */\n    tag_5:\n      callvalue\n      dup1\n      iszero\n      tag_21\n      jumpi\n      0x00\n      dup1\n      revert\n    tag_21:\n      pop\n      tag_22\n      tag_23\n      jump\t// in\n    tag_22:\n      stop\n        /* \"Week2-UniDAO/deadman.sol\":182:216  uint256 public blockThreshold = 10 */\n    tag_6:\n      callvalue\n      dup1\n      iszero\n      tag_24\n      jumpi\n      0x00\n      dup1\n      revert\n    tag_24:\n      pop\n      tag_25\n      tag_26\n      jump\t// in\n    tag_25:\n      mload(0x40)\n      tag_27\n      swap2\n      swap1\n      tag_28\n      jump\t// in\n    tag_27:\n      mload(0x40)\n      dup1\n      swap2\n      sub\n      swap1\n      return\n        /* \"Week2-UniDAO/deadman.sol\":145:176  uint256 public lastCheckedBlock */\n    tag_7:\n      callvalue\n      dup1\n      iszero\n      tag_29\n      jumpi\n      0x00\n      dup1\n      revert\n    tag_29:\n      pop\n      tag_30\n      tag_31\n      jump\t// in\n    tag_30:\n      mload(0x40)\n      tag_32\n      swap2\n      swap1\n      tag_28\n      jump\t// in\n    tag_32:\n      mload(0x40)\n      dup1\n      swap2\n      sub\n      swap1\n      return\n        /* \"Week2-UniDAO/deadman.sol\":87:107  address public owner */\n    tag_8:\n      callvalue\n      dup1\n      iszero\n      tag_33\n      jumpi\n      0x00\n      dup1\n      revert\n    tag_33:\n      pop\n      tag_34\n      tag_35\n      jump\t// in\n    tag_34:\n      mload(0x40)\n      tag_36\n      swap2\n      swap1\n      tag_17\n      jump\t// in\n    tag_36:\n      mload(0x40)\n      dup1\n      swap2\n      sub\n      swap1\n      return\n        /* \"Week2-UniDAO/deadman.sol\":547:634  function stillAlive() public onlyOwner {... */\n    tag_9:\n      callvalue\n      dup1\n      iszero\n      tag_37\n      jumpi\n      0x00\n      dup1\n      revert\n    tag_37:\n      pop\n      tag_38\n      tag_39\n      jump\t// in\n    tag_38:\n      stop\n        /* \"Week2-UniDAO/deadman.sol\":113:139  address public beneficiary */\n    tag_15:\n      0x01\n      0x00\n      swap1\n      sload\n      swap1\n      0x0100\n      exp\n      swap1\n      div\n      0xffffffffffffffffffffffffffffffffffffffff\n      and\n      dup2\n      jump\t// out\n        /* \"Week2-UniDAO/deadman.sol\":640:780  function checkStatus() public view {... */\n    tag_20:\n        /* \"Week2-UniDAO/deadman.sol\":728:742  blockThreshold */\n      sload(0x03)\n        /* \"Week2-UniDAO/deadman.sol\":708:724  lastCheckedBlock */\n      sload(0x02)\n        /* \"Week2-UniDAO/deadman.sol\":693:705  block.number */\n      number\n        /* \"Week2-UniDAO/deadman.sol\":693:724  block.number - lastCheckedBlock */\n      tag_41\n      swap2\n      swap1\n      tag_42\n      jump\t// in\n    tag_41:\n        /* \"Week2-UniDAO/deadman.sol\":693:742  block.number - lastCheckedBlock <= blockThreshold */\n      gt\n      iszero\n        /* \"Week2-UniDAO/deadman.sol\":685:773  require(block.number - lastCheckedBlock <= blockThreshold, \"Deadman's switch activated\") */\n      tag_43\n      jumpi\n      mload(0x40)\n      0x08c379a000000000000000000000000000000000000000000000000000000000\n      dup2\n      mstore\n      0x04\n      add\n      tag_44\n      swap1\n      tag_45\n      jump\t// in\n    tag_44:\n      mload(0x40)\n      dup1\n      swap2\n      sub\n      swap1\n      revert\n    tag_43:\n        /* \"Week2-UniDAO/deadman.sol\":640:780  function checkStatus() public view {... */\n      jump\t// out\n        /* \"Week2-UniDAO/deadman.sol\":786:1056  function withdraw() public onlyOwner {... */\n    tag_23:\n        /* \"Week2-UniDAO/deadman.sol\":476:481  owner */\n      0x00\n      dup1\n      sload\n      swap1\n      0x0100\n      exp\n      swap1\n      div\n      0xffffffffffffffffffffffffffffffffffffffff\n      and\n        /* \"Week2-UniDAO/deadman.sol\":462:481  msg.sender == owner */\n      0xffffffffffffffffffffffffffffffffffffffff\n      and\n        /* \"Week2-UniDAO/deadman.sol\":462:472  msg.sender */\n      caller\n        /* \"Week2-UniDAO/deadman.sol\":462:481  msg.sender == owner */\n      0xffffffffffffffffffffffffffffffffffffffff\n      and\n      eq\n        /* \"Week2-UniDAO/deadman.sol\":454:523  require(msg.sender == owner, \"Only the owner can call this function\") */\n      tag_47\n      jumpi\n      mload(0x40)\n      0x08c379a000000000000000000000000000000000000000000000000000000000\n      dup2\n      mstore\n      0x04\n      add\n      tag_48\n      swap1\n      tag_49\n      jump\t// in\n    tag_48:\n      mload(0x40)\n      dup1\n      swap2\n      sub\n      swap1\n      revert\n    tag_47:\n        /* \"Week2-UniDAO/deadman.sol\":875:889  blockThreshold */\n      sload(0x03)\n        /* \"Week2-UniDAO/deadman.sol\":856:872  lastCheckedBlock */\n      sload(0x02)\n        /* \"Week2-UniDAO/deadman.sol\":841:853  block.number */\n      number\n        /* \"Week2-UniDAO/deadman.sol\":841:872  block.number - lastCheckedBlock */\n      tag_51\n      swap2\n      swap1\n      tag_42\n      jump\t// in\n    tag_51:\n        /* \"Week2-UniDAO/deadman.sol\":841:889  block.number - lastCheckedBlock > blockThreshold */\n      gt\n        /* \"Week2-UniDAO/deadman.sol\":833:936  require(block.number - lastCheckedBlock > blockThreshold, \"Cannot withdraw until the switch activates\") */\n      tag_52\n      jumpi\n      mload(0x40)\n      0x08c379a000000000000000000000000000000000000000000000000000000000\n      dup2\n      mstore\n      0x04\n      add\n      tag_53\n      swap1\n      tag_54\n      jump\t// in\n    tag_53:\n      mload(0x40)\n      dup1\n      swap2\n      sub\n      swap1\n      revert\n    tag_52:\n        /* \"Week2-UniDAO/deadman.sol\":946:969  uint256 contractBalance */\n      0x00\n        /* \"Week2-UniDAO/deadman.sol\":972:993  address(this).balance */\n      selfbalance\n        /* \"Week2-UniDAO/deadman.sol\":946:993  uint256 contractBalance = address(this).balance */\n      swap1\n      pop\n        /* \"Week2-UniDAO/deadman.sol\":1011:1022  beneficiary */\n      0x01\n      0x00\n      swap1\n      sload\n      swap1\n      0x0100\n      exp\n      swap1\n      div\n      0xffffffffffffffffffffffffffffffffffffffff\n      and\n        /* \"Week2-UniDAO/deadman.sol\":1003:1032  payable(beneficiary).transfer */\n      0xffffffffffffffffffffffffffffffffffffffff\n      and\n        /* \"Week2-UniDAO/deadman.sol\":1003:1049  payable(beneficiary).transfer(contractBalance) */\n      0x08fc\n        /* \"Week2-UniDAO/deadman.sol\":1033:1048  contractBalance */\n      dup3\n        /* \"Week2-UniDAO/deadman.sol\":1003:1049  payable(beneficiary).transfer(contractBalance) */\n      swap1\n      dup2\n      iszero\n      mul\n      swap1\n      mload(0x40)\n      0x00\n      mload(0x40)\n      dup1\n      dup4\n      sub\n      dup2\n      dup6\n      dup9\n      dup9\n      call\n      swap4\n      pop\n      pop\n      pop\n      pop\n      iszero\n      dup1\n      iszero\n      tag_56\n      jumpi\n      returndatasize\n      0x00\n      dup1\n      returndatacopy\n      revert(0x00, returndatasize)\n    tag_56:\n      pop\n        /* \"Week2-UniDAO/deadman.sol\":823:1056  {... */\n      pop\n        /* \"Week2-UniDAO/deadman.sol\":786:1056  function withdraw() public onlyOwner {... */\n      jump\t// out\n        /* \"Week2-UniDAO/deadman.sol\":182:216  uint256 public blockThreshold = 10 */\n    tag_26:\n      sload(0x03)\n      dup2\n      jump\t// out\n        /* \"Week2-UniDAO/deadman.sol\":145:176  uint256 public lastCheckedBlock */\n    tag_31:\n      sload(0x02)\n      dup2\n      jump\t// out\n        /* \"Week2-UniDAO/deadman.sol\":87:107  address public owner */\n    tag_35:\n      0x00\n      dup1\n      sload\n      swap1\n      0x0100\n      exp\n      swap1\n      div\n      0xffffffffffffffffffffffffffffffffffffffff\n      and\n      dup2\n      jump\t// out\n        /* \"Week2-UniDAO/deadman.sol\":547:634  function stillAlive() public onlyOwner {... */\n    tag_39:\n        /* \"Week2-UniDAO/deadman.sol\":476:481  owner */\n      0x00\n      dup1\n      sload\n      swap1\n      0x0100\n      exp\n      swap1\n      div\n      0xffffffffffffffffffffffffffffffffffffffff\n      and\n        /* \"Week2-UniDAO/deadman.sol\":462:481  msg.sender == owner */\n      0xffffffffffffffffffffffffffffffffffffffff\n      and\n        /* \"Week2-UniDAO/deadman.sol\":462:472  msg.sender */\n      caller\n        /* \"Week2-UniDAO/deadman.sol\":462:481  msg.sender == owner */\n      0xffffffffffffffffffffffffffffffffffffffff\n      and\n      eq\n        /* \"Week2-UniDAO/deadman.sol\":454:523  require(msg.sender == owner, \"Only the owner can call this function\") */\n      tag_58\n      jumpi\n      mload(0x40)\n      0x08c379a000000000000000000000000000000000000000000000000000000000\n      dup2\n      mstore\n      0x04\n      add\n      tag_59\n      swap1\n      tag_49\n      jump\t// in\n    tag_59:\n      mload(0x40)\n      dup1\n      swap2\n      sub\n      swap1\n      revert\n    tag_58:\n        /* \"Week2-UniDAO/deadman.sol\":615:627  block.number */\n      number\n        /* \"Week2-UniDAO/deadman.sol\":596:612  lastCheckedBlock */\n      0x02\n        /* \"Week2-UniDAO/deadman.sol\":596:627  lastCheckedBlock = block.number */\n      dup2\n      swap1\n      sstore\n      pop\n        /* \"Week2-UniDAO/deadman.sol\":547:634  function stillAlive() public onlyOwner {... */\n      jump\t// out\n        /* \"#utility.yul\":7:133   */\n    tag_61:\n        /* \"#utility.yul\":44:51   */\n      0x00\n        /* \"#utility.yul\":84:126   */\n      0xffffffffffffffffffffffffffffffffffffffff\n        /* \"#utility.yul\":77:82   */\n      dup3\n        /* \"#utility.yul\":73:127   */\n      and\n        /* \"#utility.yul\":62:127   */\n      swap1\n      pop\n        /* \"#utility.yul\":7:133   */\n      swap2\n      swap1\n      pop\n      jump\t// out\n        /* \"#utility.yul\":139:235   */\n    tag_62:\n        /* \"#utility.yul\":176:183   */\n      0x00\n        /* \"#utility.yul\":205:229   */\n      tag_77\n        /* \"#utility.yul\":223:228   */\n      dup3\n        /* \"#utility.yul\":205:229   */\n      tag_61\n      jump\t// in\n    tag_77:\n        /* \"#utility.yul\":194:229   */\n      swap1\n      pop\n        /* \"#utility.yul\":139:235   */\n      swap2\n      swap1\n      pop\n      jump\t// out\n        /* \"#utility.yul\":241:359   */\n    tag_63:\n        /* \"#utility.yul\":328:352   */\n      tag_79\n        /* \"#utility.yul\":346:351   */\n      dup2\n        /* \"#utility.yul\":328:352   */\n      tag_62\n      jump\t// in\n    tag_79:\n        /* \"#utility.yul\":323:326   */\n      dup3\n        /* \"#utility.yul\":316:353   */\n      mstore\n        /* \"#utility.yul\":241:359   */\n      pop\n      pop\n      jump\t// out\n        /* \"#utility.yul\":365:587   */\n    tag_17:\n        /* \"#utility.yul\":458:462   */\n      0x00\n        /* \"#utility.yul\":496:498   */\n      0x20\n        /* \"#utility.yul\":485:494   */\n      dup3\n        /* \"#utility.yul\":481:499   */\n      add\n        /* \"#utility.yul\":473:499   */\n      swap1\n      pop\n        /* \"#utility.yul\":509:580   */\n      tag_81\n        /* \"#utility.yul\":577:578   */\n      0x00\n        /* \"#utility.yul\":566:575   */\n      dup4\n        /* \"#utility.yul\":562:579   */\n      add\n        /* \"#utility.yul\":553:559   */\n      dup5\n        /* \"#utility.yul\":509:580   */\n      tag_63\n      jump\t// in\n    tag_81:\n        /* \"#utility.yul\":365:587   */\n      swap3\n      swap2\n      pop\n      pop\n      jump\t// out\n        /* \"#utility.yul\":593:670   */\n    tag_64:\n        /* \"#utility.yul\":630:637   */\n      0x00\n        /* \"#utility.yul\":659:664   */\n      dup2\n        /* \"#utility.yul\":648:664   */\n      swap1\n      pop\n        /* \"#utility.yul\":593:670   */\n      swap2\n      swap1\n      pop\n      jump\t// out\n        /* \"#utility.yul\":676:794   */\n    tag_65:\n        /* \"#utility.yul\":763:787   */\n      tag_84\n        /* \"#utility.yul\":781:786   */\n      dup2\n        /* \"#utility.yul\":763:787   */\n      tag_64\n      jump\t// in\n    tag_84:\n        /* \"#utility.yul\":758:761   */\n      dup3\n        /* \"#utility.yul\":751:788   */\n      mstore\n        /* \"#utility.yul\":676:794   */\n      pop\n      pop\n      jump\t// out\n        /* \"#utility.yul\":800:1022   */\n    tag_28:\n        /* \"#utility.yul\":893:897   */\n      0x00\n        /* \"#utility.yul\":931:933   */\n      0x20\n        /* \"#utility.yul\":920:929   */\n      dup3\n        /* \"#utility.yul\":916:934   */\n      add\n        /* \"#utility.yul\":908:934   */\n      swap1\n      pop\n        /* \"#utility.yul\":944:1015   */\n      tag_86\n        /* \"#utility.yul\":1012:1013   */\n      0x00\n        /* \"#utility.yul\":1001:1010   */\n      dup4\n        /* \"#utility.yul\":997:1014   */\n      add\n        /* \"#utility.yul\":988:994   */\n      dup5\n        /* \"#utility.yul\":944:1015   */\n      tag_65\n      jump\t// in\n    tag_86:\n        /* \"#utility.yul\":800:1022   */\n      swap3\n      swap2\n      pop\n      pop\n      jump\t// out\n        /* \"#utility.yul\":1028:1208   */\n    tag_66:\n        /* \"#utility.yul\":1076:1153   */\n      0x4e487b7100000000000000000000000000000000000000000000000000000000\n        /* \"#utility.yul\":1073:1074   */\n      0x00\n        /* \"#utility.yul\":1066:1154   */\n      mstore\n        /* \"#utility.yul\":1173:1177   */\n      0x11\n        /* \"#utility.yul\":1170:1171   */\n      0x04\n        /* \"#utility.yul\":1163:1178   */\n      mstore\n        /* \"#utility.yul\":1197:1201   */\n      0x24\n        /* \"#utility.yul\":1194:1195   */\n      0x00\n        /* \"#utility.yul\":1187:1202   */\n      revert\n        /* \"#utility.yul\":1214:1408   */\n    tag_42:\n        /* \"#utility.yul\":1254:1258   */\n      0x00\n        /* \"#utility.yul\":1274:1294   */\n      tag_89\n        /* \"#utility.yul\":1292:1293   */\n      dup3\n        /* \"#utility.yul\":1274:1294   */\n      tag_64\n      jump\t// in\n    tag_89:\n        /* \"#utility.yul\":1269:1294   */\n      swap2\n      pop\n        /* \"#utility.yul\":1308:1328   */\n      tag_90\n        /* \"#utility.yul\":1326:1327   */\n      dup4\n        /* \"#utility.yul\":1308:1328   */\n      tag_64\n      jump\t// in\n    tag_90:\n        /* \"#utility.yul\":1303:1328   */\n      swap3\n      pop\n        /* \"#utility.yul\":1352:1353   */\n      dup3\n        /* \"#utility.yul\":1349:1350   */\n      dup3\n        /* \"#utility.yul\":1345:1354   */\n      sub\n        /* \"#utility.yul\":1337:1354   */\n      swap1\n      pop\n        /* \"#utility.yul\":1376:1377   */\n      dup2\n        /* \"#utility.yul\":1370:1374   */\n      dup2\n        /* \"#utility.yul\":1367:1378   */\n      gt\n        /* \"#utility.yul\":1364:1401   */\n      iszero\n      tag_91\n      jumpi\n        /* \"#utility.yul\":1381:1399   */\n      tag_92\n      tag_66\n      jump\t// in\n    tag_92:\n        /* \"#utility.yul\":1364:1401   */\n    tag_91:\n        /* \"#utility.yul\":1214:1408   */\n      swap3\n      swap2\n      pop\n      pop\n      jump\t// out\n        /* \"#utility.yul\":1414:1583   */\n    tag_67:\n        /* \"#utility.yul\":1498:1509   */\n      0x00\n        /* \"#utility.yul\":1532:1538   */\n      dup3\n        /* \"#utility.yul\":1527:1530   */\n      dup3\n        /* \"#utility.yul\":1520:1539   */\n      mstore\n        /* \"#utility.yul\":1572:1576   */\n      0x20\n        /* \"#utility.yul\":1567:1570   */\n      dup3\n        /* \"#utility.yul\":1563:1577   */\n      add\n        /* \"#utility.yul\":1548:1577   */\n      swap1\n      pop\n        /* \"#utility.yul\":1414:1583   */\n      swap3\n      swap2\n      pop\n      pop\n      jump\t// out\n        /* \"#utility.yul\":1589:1765   */\n    tag_68:\n        /* \"#utility.yul\":1729:1757   */\n      0x446561646d616e27732073776974636820616374697661746564000000000000\n        /* \"#utility.yul\":1725:1726   */\n      0x00\n        /* \"#utility.yul\":1717:1723   */\n      dup3\n        /* \"#utility.yul\":1713:1727   */\n      add\n        /* \"#utility.yul\":1706:1758   */\n      mstore\n        /* \"#utility.yul\":1589:1765   */\n      pop\n      jump\t// out\n        /* \"#utility.yul\":1771:2137   */\n    tag_69:\n        /* \"#utility.yul\":1913:1916   */\n      0x00\n        /* \"#utility.yul\":1934:2001   */\n      tag_96\n        /* \"#utility.yul\":1998:2000   */\n      0x1a\n        /* \"#utility.yul\":1993:1996   */\n      dup4\n        /* \"#utility.yul\":1934:2001   */\n      tag_67\n      jump\t// in\n    tag_96:\n        /* \"#utility.yul\":1927:2001   */\n      swap2\n      pop\n        /* \"#utility.yul\":2010:2103   */\n      tag_97\n        /* \"#utility.yul\":2099:2102   */\n      dup3\n        /* \"#utility.yul\":2010:2103   */\n      tag_68\n      jump\t// in\n    tag_97:\n        /* \"#utility.yul\":2128:2130   */\n      0x20\n        /* \"#utility.yul\":2123:2126   */\n      dup3\n        /* \"#utility.yul\":2119:2131   */\n      add\n        /* \"#utility.yul\":2112:2131   */\n      swap1\n      pop\n        /* \"#utility.yul\":1771:2137   */\n      swap2\n      swap1\n      pop\n      jump\t// out\n        /* \"#utility.yul\":2143:2562   */\n    tag_45:\n        /* \"#utility.yul\":2309:2313   */\n      0x00\n        /* \"#utility.yul\":2347:2349   */\n      0x20\n        /* \"#utility.yul\":2336:2345   */\n      dup3\n        /* \"#utility.yul\":2332:2350   */\n      add\n        /* \"#utility.yul\":2324:2350   */\n      swap1\n      pop\n        /* \"#utility.yul\":2396:2405   */\n      dup2\n        /* \"#utility.yul\":2390:2394   */\n      dup2\n        /* \"#utility.yul\":2386:2406   */\n      sub\n        /* \"#utility.yul\":2382:2383   */\n      0x00\n        /* \"#utility.yul\":2371:2380   */\n      dup4\n        /* \"#utility.yul\":2367:2384   */\n      add\n        /* \"#utility.yul\":2360:2407   */\n      mstore\n        /* \"#utility.yul\":2424:2555   */\n      tag_99\n        /* \"#utility.yul\":2550:2554   */\n      dup2\n        /* \"#utility.yul\":2424:2555   */\n      tag_69\n      jump\t// in\n    tag_99:\n        /* \"#utility.yul\":2416:2555   */\n      swap1\n      pop\n        /* \"#utility.yul\":2143:2562   */\n      swap2\n      swap1\n      pop\n      jump\t// out\n        /* \"#utility.yul\":2568:2792   */\n    tag_70:\n        /* \"#utility.yul\":2708:2742   */\n      0x4f6e6c7920746865206f776e65722063616e2063616c6c20746869732066756e\n        /* \"#utility.yul\":2704:2705   */\n      0x00\n        /* \"#utility.yul\":2696:2702   */\n      dup3\n        /* \"#utility.yul\":2692:2706   */\n      add\n        /* \"#utility.yul\":2685:2743   */\n      mstore\n        /* \"#utility.yul\":2777:2784   */\n      0x6374696f6e000000000000000000000000000000000000000000000000000000\n        /* \"#utility.yul\":2772:2774   */\n      0x20\n        /* \"#utility.yul\":2764:2770   */\n      dup3\n        /* \"#utility.yul\":2760:2775   */\n      add\n        /* \"#utility.yul\":2753:2785   */\n      mstore\n        /* \"#utility.yul\":2568:2792   */\n      pop\n      jump\t// out\n        /* \"#utility.yul\":2798:3164   */\n    tag_71:\n        /* \"#utility.yul\":2940:2943   */\n      0x00\n        /* \"#utility.yul\":2961:3028   */\n      tag_102\n        /* \"#utility.yul\":3025:3027   */\n      0x25\n        /* \"#utility.yul\":3020:3023   */\n      dup4\n        /* \"#utility.yul\":2961:3028   */\n      tag_67\n      jump\t// in\n    tag_102:\n        /* \"#utility.yul\":2954:3028   */\n      swap2\n      pop\n        /* \"#utility.yul\":3037:3130   */\n      tag_103\n        /* \"#utility.yul\":3126:3129   */\n      dup3\n        /* \"#utility.yul\":3037:3130   */\n      tag_70\n      jump\t// in\n    tag_103:\n        /* \"#utility.yul\":3155:3157   */\n      0x40\n        /* \"#utility.yul\":3150:3153   */\n      dup3\n        /* \"#utility.yul\":3146:3158   */\n      add\n        /* \"#utility.yul\":3139:3158   */\n      swap1\n      pop\n        /* \"#utility.yul\":2798:3164   */\n      swap2\n      swap1\n      pop\n      jump\t// out\n        /* \"#utility.yul\":3170:3589   */\n    tag_49:\n        /* \"#utility.yul\":3336:3340   */\n      0x00\n        /* \"#utility.yul\":3374:3376   */\n      0x20\n        /* \"#utility.yul\":3363:3372   */\n      dup3\n        /* \"#utility.yul\":3359:3377   */\n      add\n        /* \"#utility.yul\":3351:3377   */\n      swap1\n      pop\n        /* \"#utility.yul\":3423:3432   */\n      dup2\n        /* \"#utility.yul\":3417:3421   */\n      dup2\n        /* \"#utility.yul\":3413:3433   */\n      sub\n        /* \"#utility.yul\":3409:3410   */\n      0x00\n        /* \"#utility.yul\":3398:3407   */\n      dup4\n        /* \"#utility.yul\":3394:3411   */\n      add\n        /* \"#utility.yul\":3387:3434   */\n      mstore\n        /* \"#utility.yul\":3451:3582   */\n      tag_105\n        /* \"#utility.yul\":3577:3581   */\n      dup2\n        /* \"#utility.yul\":3451:3582   */\n      tag_71\n      jump\t// in\n    tag_105:\n        /* \"#utility.yul\":3443:3582   */\n      swap1\n      pop\n        /* \"#utility.yul\":3170:3589   */\n      swap2\n      swap1\n      pop\n      jump\t// out\n        /* \"#utility.yul\":3595:3824   */\n    tag_72:\n        /* \"#utility.yul\":3735:3769   */\n      0x43616e6e6f7420776974686472617720756e74696c2074686520737769746368\n        /* \"#utility.yul\":3731:3732   */\n      0x00\n        /* \"#utility.yul\":3723:3729   */\n      dup3\n        /* \"#utility.yul\":3719:3733   */\n      add\n        /* \"#utility.yul\":3712:3770   */\n      mstore\n        /* \"#utility.yul\":3804:3816   */\n      0x2061637469766174657300000000000000000000000000000000000000000000\n        /* \"#utility.yul\":3799:3801   */\n      0x20\n        /* \"#utility.yul\":3791:3797   */\n      dup3\n        /* \"#utility.yul\":3787:3802   */\n      add\n        /* \"#utility.yul\":3780:3817   */\n      mstore\n        /* \"#utility.yul\":3595:3824   */\n      pop\n      jump\t// out\n        /* \"#utility.yul\":3830:4196   */\n    tag_73:\n        /* \"#utility.yul\":3972:3975   */\n      0x00\n        /* \"#utility.yul\":3993:4060   */\n      tag_108\n        /* \"#utility.yul\":4057:4059   */\n      0x2a\n        /* \"#utility.yul\":4052:4055   */\n      dup4\n        /* \"#utility.yul\":3993:4060   */\n      tag_67\n      jump\t// in\n    tag_108:\n        /* \"#utility.yul\":3986:4060   */\n      swap2\n      pop\n        /* \"#utility.yul\":4069:4162   */\n      tag_109\n        /* \"#utility.yul\":4158:4161   */\n      dup3\n        /* \"#utility.yul\":4069:4162   */\n      tag_72\n      jump\t// in\n    tag_109:\n        /* \"#utility.yul\":4187:4189   */\n      0x40\n        /* \"#utility.yul\":4182:4185   */\n      dup3\n        /* \"#utility.yul\":4178:4190   */\n      add\n        /* \"#utility.yul\":4171:4190   */\n      swap1\n      pop\n        /* \"#utility.yul\":3830:4196   */\n      swap2\n      swap1\n      pop\n      jump\t// out\n        /* \"#utility.yul\":4202:4621   */\n    tag_54:\n        /* \"#utility.yul\":4368:4372   */\n      0x00\n        /* \"#utility.yul\":4406:4408   */\n      0x20\n        /* \"#utility.yul\":4395:4404   */\n      dup3\n        /* \"#utility.yul\":4391:4409   */\n      add\n        /* \"#utility.yul\":4383:4409   */\n      swap1\n      pop\n        /* \"#utility.yul\":4455:4464   */\n      dup2\n        /* \"#utility.yul\":4449:4453   */\n      dup2\n        /* \"#utility.yul\":4445:4465   */\n      sub\n        /* \"#utility.yul\":4441:4442   */\n      0x00\n        /* \"#utility.yul\":4430:4439   */\n      dup4\n        /* \"#utility.yul\":4426:4443   */\n      add\n        /* \"#utility.yul\":4419:4466   */\n      mstore\n        /* \"#utility.yul\":4483:4614   */\n      tag_111\n        /* \"#utility.yul\":4609:4613   */\n      dup2\n        /* \"#utility.yul\":4483:4614   */\n      tag_73\n      jump\t// in\n    tag_111:\n        /* \"#utility.yul\":4475:4614   */\n      swap1\n      pop\n        /* \"#utility.yul\":4202:4621   */\n      swap2\n      swap1\n      pop\n      jump\t// out\n\n    auxdata: 0xa264697066735822122010ff47341b23033286e1ae5469f002e7e6105690e3808722ea25cf750620979464736f6c63430008120033\n}\n",
				"bytecode": {
					"linkReferences": {},
					"object": "6080604052600a60035534801561001557600080fd5b5060405161083038038061083083398181016040528101906100379190610128565b336000806101000a81548173ffffffffffffffffffffffffffffffffffffffff021916908373ffffffffffffffffffffffffffffffffffffffff16021790555080600160006101000a81548173ffffffffffffffffffffffffffffffffffffffff021916908373ffffffffffffffffffffffffffffffffffffffff1602179055504360028190555050610155565b600080fd5b600073ffffffffffffffffffffffffffffffffffffffff82169050919050565b60006100f5826100ca565b9050919050565b610105816100ea565b811461011057600080fd5b50565b600081519050610122816100fc565b92915050565b60006020828403121561013e5761013d6100c5565b5b600061014c84828501610113565b91505092915050565b6106cc806101646000396000f3fe6080604052600436106100745760003560e01c80634c41a6c71161004e5780634c41a6c7146100d95780637f76614b146101045780638da5cb5b1461012f578063b0ad99281461015a5761007b565b806338af3eed146100805780633b7104f2146100ab5780633ccfd60b146100c25761007b565b3661007b57005b600080fd5b34801561008c57600080fd5b50610095610171565b6040516100a29190610443565b60405180910390f35b3480156100b757600080fd5b506100c0610197565b005b3480156100ce57600080fd5b506100d76101eb565b005b3480156100e557600080fd5b506100ee61033b565b6040516100fb9190610477565b60405180910390f35b34801561011057600080fd5b50610119610341565b6040516101269190610477565b60405180910390f35b34801561013b57600080fd5b50610144610347565b6040516101519190610443565b60405180910390f35b34801561016657600080fd5b5061016f61036b565b005b600160009054906101000a900473ffffffffffffffffffffffffffffffffffffffff1681565b600354600254436101a891906104c1565b11156101e9576040517f08c379a00000000000000000000000000000000000000000000000000000000081526004016101e090610552565b60405180910390fd5b565b60008054906101000a900473ffffffffffffffffffffffffffffffffffffffff1673ffffffffffffffffffffffffffffffffffffffff163373ffffffffffffffffffffffffffffffffffffffff1614610279576040517f08c379a0000000000000000000000000000000000000000000000000000000008152600401610270906105e4565b60405180910390fd5b6003546002544361028a91906104c1565b116102ca576040517f08c379a00000000000000000000000000000000000000000000000000000000081526004016102c190610676565b60405180910390fd5b6000479050600160009054906101000a900473ffffffffffffffffffffffffffffffffffffffff1673ffffffffffffffffffffffffffffffffffffffff166108fc829081150290604051600060405180830381858888f19350505050158015610337573d6000803e3d6000fd5b5050565b60035481565b60025481565b60008054906101000a900473ffffffffffffffffffffffffffffffffffffffff1681565b60008054906101000a900473ffffffffffffffffffffffffffffffffffffffff1673ffffffffffffffffffffffffffffffffffffffff163373ffffffffffffffffffffffffffffffffffffffff16146103f9576040517f08c379a00000000000000000000000000000000000000000000000000000000081526004016103f0906105e4565b60405180910390fd5b43600281905550565b600073ffffffffffffffffffffffffffffffffffffffff82169050919050565b600061042d82610402565b9050919050565b61043d81610422565b82525050565b60006020820190506104586000830184610434565b92915050565b6000819050919050565b6104718161045e565b82525050565b600060208201905061048c6000830184610468565b92915050565b7f4e487b7100000000000000000000000000000000000000000000000000000000600052601160045260246000fd5b60006104cc8261045e565b91506104d78361045e565b92508282039050818111156104ef576104ee610492565b5b92915050565b600082825260208201905092915050565b7f446561646d616e27732073776974636820616374697661746564000000000000600082015250565b600061053c601a836104f5565b915061054782610506565b602082019050919050565b6000602082019050818103600083015261056b8161052f565b9050919050565b7f4f6e6c7920746865206f776e65722063616e2063616c6c20746869732066756e60008201527f6374696f6e000000000000000000000000000000000000000000000000000000602082015250565b60006105ce6025836104f5565b91506105d982610572565b604082019050919050565b600060208201905081810360008301526105fd816105c1565b9050919050565b7f43616e6e6f7420776974686472617720756e74696c207468652073776974636860008201527f2061637469766174657300000000000000000000000000000000000000000000602082015250565b6000610660602a836104f5565b915061066b82610604565b604082019050919050565b6000602082019050818103600083015261068f81610653565b905091905056fea264697066735822122010ff47341b23033286e1ae5469f002e7e6105690e3808722ea25cf750620979464736f6c63430008120033",
					"opcodes": "PUSH1 0x80 PUSH1 0x40 MSTORE PUSH1 0xA PUSH1 0x3 SSTORE CALLVALUE DUP1 ISZERO PUSH2 0x15 JUMPI PUSH1 0x0 DUP1 REVERT JUMPDEST POP PUSH1 0x40 MLOAD PUSH2 0x830 CODESIZE SUB DUP1 PUSH2 0x830 DUP4 CODECOPY DUP2 DUP2 ADD PUSH1 0x40 MSTORE DUP2 ADD SWAP1 PUSH2 0x37 SWAP2 SWAP1 PUSH2 0x128 JUMP JUMPDEST CALLER PUSH1 0x0 DUP1 PUSH2 0x100 EXP DUP2 SLOAD DUP2 PUSH20 0xFFFFFFFFFFFFFFFFFFFFFFFFFFFFFFFFFFFFFFFF MUL NOT AND SWAP1 DUP4 PUSH20 0xFFFFFFFFFFFFFFFFFFFFFFFFFFFFFFFFFFFFFFFF AND MUL OR SWAP1 SSTORE POP DUP1 PUSH1 0x1 PUSH1 0x0 PUSH2 0x100 EXP DUP2 SLOAD DUP2 PUSH20 0xFFFFFFFFFFFFFFFFFFFFFFFFFFFFFFFFFFFFFFFF MUL NOT AND SWAP1 DUP4 PUSH20 0xFFFFFFFFFFFFFFFFFFFFFFFFFFFFFFFFFFFFFFFF AND MUL OR SWAP1 SSTORE POP NUMBER PUSH1 0x2 DUP2 SWAP1 SSTORE POP POP PUSH2 0x155 JUMP JUMPDEST PUSH1 0x0 DUP1 REVERT JUMPDEST PUSH1 0x0 PUSH20 0xFFFFFFFFFFFFFFFFFFFFFFFFFFFFFFFFFFFFFFFF DUP3 AND SWAP1 POP SWAP2 SWAP1 POP JUMP JUMPDEST PUSH1 0x0 PUSH2 0xF5 DUP3 PUSH2 0xCA JUMP JUMPDEST SWAP1 POP SWAP2 SWAP1 POP JUMP JUMPDEST PUSH2 0x105 DUP2 PUSH2 0xEA JUMP JUMPDEST DUP2 EQ PUSH2 0x110 JUMPI PUSH1 0x0 DUP1 REVERT JUMPDEST POP JUMP JUMPDEST PUSH1 0x0 DUP2 MLOAD SWAP1 POP PUSH2 0x122 DUP2 PUSH2 0xFC JUMP JUMPDEST SWAP3 SWAP2 POP POP JUMP JUMPDEST PUSH1 0x0 PUSH1 0x20 DUP3 DUP5 SUB SLT ISZERO PUSH2 0x13E JUMPI PUSH2 0x13D PUSH2 0xC5 JUMP JUMPDEST JUMPDEST PUSH1 0x0 PUSH2 0x14C DUP5 DUP3 DUP6 ADD PUSH2 0x113 JUMP JUMPDEST SWAP2 POP POP SWAP3 SWAP2 POP POP JUMP JUMPDEST PUSH2 0x6CC DUP1 PUSH2 0x164 PUSH1 0x0 CODECOPY PUSH1 0x0 RETURN INVALID PUSH1 0x80 PUSH1 0x40 MSTORE PUSH1 0x4 CALLDATASIZE LT PUSH2 0x74 JUMPI PUSH1 0x0 CALLDATALOAD PUSH1 0xE0 SHR DUP1 PUSH4 0x4C41A6C7 GT PUSH2 0x4E JUMPI DUP1 PUSH4 0x4C41A6C7 EQ PUSH2 0xD9 JUMPI DUP1 PUSH4 0x7F76614B EQ PUSH2 0x104 JUMPI DUP1 PUSH4 0x8DA5CB5B EQ PUSH2 0x12F JUMPI DUP1 PUSH4 0xB0AD9928 EQ PUSH2 0x15A JUMPI PUSH2 0x7B JUMP JUMPDEST DUP1 PUSH4 0x38AF3EED EQ PUSH2 0x80 JUMPI DUP1 PUSH4 0x3B7104F2 EQ PUSH2 0xAB JUMPI DUP1 PUSH4 0x3CCFD60B EQ PUSH2 0xC2 JUMPI PUSH2 0x7B JUMP JUMPDEST CALLDATASIZE PUSH2 0x7B JUMPI STOP JUMPDEST PUSH1 0x0 DUP1 REVERT JUMPDEST CALLVALUE DUP1 ISZERO PUSH2 0x8C JUMPI PUSH1 0x0 DUP1 REVERT JUMPDEST POP PUSH2 0x95 PUSH2 0x171 JUMP JUMPDEST PUSH1 0x40 MLOAD PUSH2 0xA2 SWAP2 SWAP1 PUSH2 0x443 JUMP JUMPDEST PUSH1 0x40 MLOAD DUP1 SWAP2 SUB SWAP1 RETURN JUMPDEST CALLVALUE DUP1 ISZERO PUSH2 0xB7 JUMPI PUSH1 0x0 DUP1 REVERT JUMPDEST POP PUSH2 0xC0 PUSH2 0x197 JUMP JUMPDEST STOP JUMPDEST CALLVALUE DUP1 ISZERO PUSH2 0xCE JUMPI PUSH1 0x0 DUP1 REVERT JUMPDEST POP PUSH2 0xD7 PUSH2 0x1EB JUMP JUMPDEST STOP JUMPDEST CALLVALUE DUP1 ISZERO PUSH2 0xE5 JUMPI PUSH1 0x0 DUP1 REVERT JUMPDEST POP PUSH2 0xEE PUSH2 0x33B JUMP JUMPDEST PUSH1 0x40 MLOAD PUSH2 0xFB SWAP2 SWAP1 PUSH2 0x477 JUMP JUMPDEST PUSH1 0x40 MLOAD DUP1 SWAP2 SUB SWAP1 RETURN JUMPDEST CALLVALUE DUP1 ISZERO PUSH2 0x110 JUMPI PUSH1 0x0 DUP1 REVERT JUMPDEST POP PUSH2 0x119 PUSH2 0x341 JUMP JUMPDEST PUSH1 0x40 MLOAD PUSH2 0x126 SWAP2 SWAP1 PUSH2 0x477 JUMP JUMPDEST PUSH1 0x40 MLOAD DUP1 SWAP2 SUB SWAP1 RETURN JUMPDEST CALLVALUE DUP1 ISZERO PUSH2 0x13B JUMPI PUSH1 0x0 DUP1 REVERT JUMPDEST POP PUSH2 0x144 PUSH2 0x347 JUMP JUMPDEST PUSH1 0x40 MLOAD PUSH2 0x151 SWAP2 SWAP1 PUSH2 0x443 JUMP JUMPDEST PUSH1 0x40 MLOAD DUP1 SWAP2 SUB SWAP1 RETURN JUMPDEST CALLVALUE DUP1 ISZERO PUSH2 0x166 JUMPI PUSH1 0x0 DUP1 REVERT JUMPDEST POP PUSH2 0x16F PUSH2 0x36B JUMP JUMPDEST STOP JUMPDEST PUSH1 0x1 PUSH1 0x0 SWAP1 SLOAD SWAP1 PUSH2 0x100 EXP SWAP1 DIV PUSH20 0xFFFFFFFFFFFFFFFFFFFFFFFFFFFFFFFFFFFFFFFF AND DUP2 JUMP JUMPDEST PUSH1 0x3 SLOAD PUSH1 0x2 SLOAD NUMBER PUSH2 0x1A8 SWAP2 SWAP1 PUSH2 0x4C1 JUMP JUMPDEST GT ISZERO PUSH2 0x1E9 JUMPI PUSH1 0x40 MLOAD PUSH32 0x8C379A000000000000000000000000000000000000000000000000000000000 DUP2 MSTORE PUSH1 0x4 ADD PUSH2 0x1E0 SWAP1 PUSH2 0x552 JUMP JUMPDEST PUSH1 0x40 MLOAD DUP1 SWAP2 SUB SWAP1 REVERT JUMPDEST JUMP JUMPDEST PUSH1 0x0 DUP1 SLOAD SWAP1 PUSH2 0x100 EXP SWAP1 DIV PUSH20 0xFFFFFFFFFFFFFFFFFFFFFFFFFFFFFFFFFFFFFFFF AND PUSH20 0xFFFFFFFFFFFFFFFFFFFFFFFFFFFFFFFFFFFFFFFF AND CALLER PUSH20 0xFFFFFFFFFFFFFFFFFFFFFFFFFFFFFFFFFFFFFFFF AND EQ PUSH2 0x279 JUMPI PUSH1 0x40 MLOAD PUSH32 0x8C379A000000000000000000000000000000000000000000000000000000000 DUP2 MSTORE PUSH1 0x4 ADD PUSH2 0x270 SWAP1 PUSH2 0x5E4 JUMP JUMPDEST PUSH1 0x40 MLOAD DUP1 SWAP2 SUB SWAP1 REVERT JUMPDEST PUSH1 0x3 SLOAD PUSH1 0x2 SLOAD NUMBER PUSH2 0x28A SWAP2 SWAP1 PUSH2 0x4C1 JUMP JUMPDEST GT PUSH2 0x2CA JUMPI PUSH1 0x40 MLOAD PUSH32 0x8C379A000000000000000000000000000000000000000000000000000000000 DUP2 MSTORE PUSH1 0x4 ADD PUSH2 0x2C1 SWAP1 PUSH2 0x676 JUMP JUMPDEST PUSH1 0x40 MLOAD DUP1 SWAP2 SUB SWAP1 REVERT JUMPDEST PUSH1 0x0 SELFBALANCE SWAP1 POP PUSH1 0x1 PUSH1 0x0 SWAP1 SLOAD SWAP1 PUSH2 0x100 EXP SWAP1 DIV PUSH20 0xFFFFFFFFFFFFFFFFFFFFFFFFFFFFFFFFFFFFFFFF AND PUSH20 0xFFFFFFFFFFFFFFFFFFFFFFFFFFFFFFFFFFFFFFFF AND PUSH2 0x8FC DUP3 SWAP1 DUP2 ISZERO MUL SWAP1 PUSH1 0x40 MLOAD PUSH1 0x0 PUSH1 0x40 MLOAD DUP1 DUP4 SUB DUP2 DUP6 DUP9 DUP9 CALL SWAP4 POP POP POP POP ISZERO DUP1 ISZERO PUSH2 0x337 JUMPI RETURNDATASIZE PUSH1 0x0 DUP1 RETURNDATACOPY RETURNDATASIZE PUSH1 0x0 REVERT JUMPDEST POP POP JUMP JUMPDEST PUSH1 0x3 SLOAD DUP2 JUMP JUMPDEST PUSH1 0x2 SLOAD DUP2 JUMP JUMPDEST PUSH1 0x0 DUP1 SLOAD SWAP1 PUSH2 0x100 EXP SWAP1 DIV PUSH20 0xFFFFFFFFFFFFFFFFFFFFFFFFFFFFFFFFFFFFFFFF AND DUP2 JUMP JUMPDEST PUSH1 0x0 DUP1 SLOAD SWAP1 PUSH2 0x100 EXP SWAP1 DIV PUSH20 0xFFFFFFFFFFFFFFFFFFFFFFFFFFFFFFFFFFFFFFFF AND PUSH20 0xFFFFFFFFFFFFFFFFFFFFFFFFFFFFFFFFFFFFFFFF AND CALLER PUSH20 0xFFFFFFFFFFFFFFFFFFFFFFFFFFFFFFFFFFFFFFFF AND EQ PUSH2 0x3F9 JUMPI PUSH1 0x40 MLOAD PUSH32 0x8C379A000000000000000000000000000000000000000000000000000000000 DUP2 MSTORE PUSH1 0x4 ADD PUSH2 0x3F0 SWAP1 PUSH2 0x5E4 JUMP JUMPDEST PUSH1 0x40 MLOAD DUP1 SWAP2 SUB SWAP1 REVERT JUMPDEST NUMBER PUSH1 0x2 DUP2 SWAP1 SSTORE POP JUMP JUMPDEST PUSH1 0x0 PUSH20 0xFFFFFFFFFFFFFFFFFFFFFFFFFFFFFFFFFFFFFFFF DUP3 AND SWAP1 POP SWAP2 SWAP1 POP JUMP JUMPDEST PUSH1 0x0 PUSH2 0x42D DUP3 PUSH2 0x402 JUMP JUMPDEST SWAP1 POP SWAP2 SWAP1 POP JUMP JUMPDEST PUSH2 0x43D DUP2 PUSH2 0x422 JUMP JUMPDEST DUP3 MSTORE POP POP JUMP JUMPDEST PUSH1 0x0 PUSH1 0x20 DUP3 ADD SWAP1 POP PUSH2 0x458 PUSH1 0x0 DUP4 ADD DUP5 PUSH2 0x434 JUMP JUMPDEST SWAP3 SWAP2 POP POP JUMP JUMPDEST PUSH1 0x0 DUP2 SWAP1 POP SWAP2 SWAP1 POP JUMP JUMPDEST PUSH2 0x471 DUP2 PUSH2 0x45E JUMP JUMPDEST DUP3 MSTORE POP POP JUMP JUMPDEST PUSH1 0x0 PUSH1 0x20 DUP3 ADD SWAP1 POP PUSH2 0x48C PUSH1 0x0 DUP4 ADD DUP5 PUSH2 0x468 JUMP JUMPDEST SWAP3 SWAP2 POP POP JUMP JUMPDEST PUSH32 0x4E487B7100000000000000000000000000000000000000000000000000000000 PUSH1 0x0 MSTORE PUSH1 0x11 PUSH1 0x4 MSTORE PUSH1 0x24 PUSH1 0x0 REVERT JUMPDEST PUSH1 0x0 PUSH2 0x4CC DUP3 PUSH2 0x45E JUMP JUMPDEST SWAP2 POP PUSH2 0x4D7 DUP4 PUSH2 0x45E JUMP JUMPDEST SWAP3 POP DUP3 DUP3 SUB SWAP1 POP DUP2 DUP2 GT ISZERO PUSH2 0x4EF JUMPI PUSH2 0x4EE PUSH2 0x492 JUMP JUMPDEST JUMPDEST SWAP3 SWAP2 POP POP JUMP JUMPDEST PUSH1 0x0 DUP3 DUP3 MSTORE PUSH1 0x20 DUP3 ADD SWAP1 POP SWAP3 SWAP2 POP POP JUMP JUMPDEST PUSH32 0x446561646D616E27732073776974636820616374697661746564000000000000 PUSH1 0x0 DUP3 ADD MSTORE POP JUMP JUMPDEST PUSH1 0x0 PUSH2 0x53C PUSH1 0x1A DUP4 PUSH2 0x4F5 JUMP JUMPDEST SWAP2 POP PUSH2 0x547 DUP3 PUSH2 0x506 JUMP JUMPDEST PUSH1 0x20 DUP3 ADD SWAP1 POP SWAP2 SWAP1 POP JUMP JUMPDEST PUSH1 0x0 PUSH1 0x20 DUP3 ADD SWAP1 POP DUP2 DUP2 SUB PUSH1 0x0 DUP4 ADD MSTORE PUSH2 0x56B DUP2 PUSH2 0x52F JUMP JUMPDEST SWAP1 POP SWAP2 SWAP1 POP JUMP JUMPDEST PUSH32 0x4F6E6C7920746865206F776E65722063616E2063616C6C20746869732066756E PUSH1 0x0 DUP3 ADD MSTORE PUSH32 0x6374696F6E000000000000000000000000000000000000000000000000000000 PUSH1 0x20 DUP3 ADD MSTORE POP JUMP JUMPDEST PUSH1 0x0 PUSH2 0x5CE PUSH1 0x25 DUP4 PUSH2 0x4F5 JUMP JUMPDEST SWAP2 POP PUSH2 0x5D9 DUP3 PUSH2 0x572 JUMP JUMPDEST PUSH1 0x40 DUP3 ADD SWAP1 POP SWAP2 SWAP1 POP JUMP JUMPDEST PUSH1 0x0 PUSH1 0x20 DUP3 ADD SWAP1 POP DUP2 DUP2 SUB PUSH1 0x0 DUP4 ADD MSTORE PUSH2 0x5FD DUP2 PUSH2 0x5C1 JUMP JUMPDEST SWAP1 POP SWAP2 SWAP1 POP JUMP JUMPDEST PUSH32 0x43616E6E6F7420776974686472617720756E74696C2074686520737769746368 PUSH1 0x0 DUP3 ADD MSTORE PUSH32 0x2061637469766174657300000000000000000000000000000000000000000000 PUSH1 0x20 DUP3 ADD MSTORE POP JUMP JUMPDEST PUSH1 0x0 PUSH2 0x660 PUSH1 0x2A DUP4 PUSH2 0x4F5 JUMP JUMPDEST SWAP2 POP PUSH2 0x66B DUP3 PUSH2 0x604 JUMP JUMPDEST PUSH1 0x40 DUP3 ADD SWAP1 POP SWAP2 SWAP1 POP JUMP JUMPDEST PUSH1 0x0 PUSH1 0x20 DUP3 ADD SWAP1 POP DUP2 DUP2 SUB PUSH1 0x0 DUP4 ADD MSTORE PUSH2 0x68F DUP2 PUSH2 0x653 JUMP JUMPDEST SWAP1 POP SWAP2 SWAP1 POP JUMP INVALID LOG2 PUSH5 0x6970667358 0x22 SLT KECCAK256 LT SELFDESTRUCT SELFBALANCE CALLVALUE SHL 0x23 SUB ORIGIN DUP7 0xE1 0xAE SLOAD PUSH10 0xF002E7E6105690E38087 0x22 0xEA 0x25 0xCF PUSH22 0x620979464736F6C6343000812003300000000000000 "
				},
				"gasEstimates": {
					"creation": {
						"codeDepositCost": "348000",
						"executionCost": "infinite",
						"totalCost": "infinite"
					},
					"external": {
						"beneficiary()": "2515",
						"blockThreshold()": "2429",
						"checkStatus()": "infinite",
						"lastCheckedBlock()": "2451",
						"owner()": "2555",
						"stillAlive()": "24490",
						"withdraw()": "infinite"
					}
				},
				"methodIdentifiers": {
					"beneficiary()": "38af3eed",
					"blockThreshold()": "4c41a6c7",
					"checkStatus()": "3b7104f2",
					"lastCheckedBlock()": "7f76614b",
					"owner()": "8da5cb5b",
					"stillAlive()": "b0ad9928",
					"withdraw()": "3ccfd60b"
				}
			},
			"storageLayout": {
				"storage": [
					{
						"astId": 3,
						"contract": "Week2-UniDAO/deadman.sol:DeadmansSwitch",
						"label": "owner",
						"offset": 0,
						"slot": "0",
						"type": "t_address"
					},
					{
						"astId": 5,
						"contract": "Week2-UniDAO/deadman.sol:DeadmansSwitch",
						"label": "beneficiary",
						"offset": 0,
						"slot": "1",
						"type": "t_address"
					},
					{
						"astId": 7,
						"contract": "Week2-UniDAO/deadman.sol:DeadmansSwitch",
						"label": "lastCheckedBlock",
						"offset": 0,
						"slot": "2",
						"type": "t_uint256"
					},
					{
						"astId": 10,
						"contract": "Week2-UniDAO/deadman.sol:DeadmansSwitch",
						"label": "blockThreshold",
						"offset": 0,
						"slot": "3",
						"type": "t_uint256"
					}
				],
				"types": {
					"t_address": {
						"encoding": "inplace",
						"label": "address",
						"numberOfBytes": "20"
					},
					"t_uint256": {
						"encoding": "inplace",
						"label": "uint256",
						"numberOfBytes": "32"
					}
				}
			},
			"userdoc": {
				"kind": "user",
				"methods": {},
				"version": 1
			}
		}
	}
}